:020000040800F2
:1000000000280020354100087D4100087D4100089E
:100010007D4100087D4100087D410008000000008E
:100020000000000000000000000000007D4100080A
:100030007D410008000000007D410008D333000826
:100040007D4100087D4100087D4100087D41000898
:100050007D4100087D410008C1340008C734000814
:10006000CD340008D3340008D93400087D4100089D
:100070007D4100087D4100087D4100087D41000868
:100080007D4100087D4100087D4100087D41000858
:100090007D4100087D4100087D410008DF340008F3
:1000A0007D410008BD3000087D410008D1300008C6
:1000B000D5300008E9300008000000007D4100084C
:1000C0007D41000800000000000000007D410008A4
:1000D00000000000393E0008513E0008000000000A
:1000E000F53400087D4100087D4100080000000053
:1000F0000000000000000000000000000000000000
:0C01000000000000000000005FF808F1A3
:1001100081F0004102E000BF83F0004330B54FEAB8
:1001200041044FEA430594EA050F08BF90EA020F25
:100130001FBF54EA000C55EA020C7FEA645C7FEAB8
:10014000655C00F0E2804FEA5454D4EB5555B8BFDB
:100150006D420CDD2C4480EA020281EA030382EA4C
:10016000000083EA010180EA020281EA0303362DDE
:1001700088BF30BD11F0004F4FEA01314FF4801CB1
:100180004CEA113102D0404261EB410113F0004FC3
:100190004FEA03334CEA133302D0524263EB43037A
:1001A00094EA050F00F0A780A4F10104D5F1200E18
:1001B0000DDB02FA0EFC22FA05F2801841F1000173
:1001C00003FA0EF2801843FA05F359410EE0A5F147
:1001D00020050EF1200E012A03FA0EFC28BF4CF078
:1001E000020C43FA05F3C01851EBE37101F000452E
:1001F00007D54FF0000EDCF1000C7EEB00006EEB3B
:100200000101B1F5801F1BD3B1F5001F0CD34908C4
:100210005FEA30004FEA3C0C04F101044FEA44521B
:1002200012F5800F80F09A80BCF1004F08BF5FEAA2
:10023000500C50F1000041EB045141EA050130BD82
:100240005FEA4C0C404141EB0101013C28BFB1F594
:10025000801FE9D291F0000F04BF01460020B1FADF
:1002600081F308BF2033A3F10B03B3F120020CDAB2
:100270000C3208DD02F1140CC2F10C0201FA0CF090
:1002800021FA02F10CE002F11402D8BFC2F1200CF5
:1002900001FA02F120FA0CFCDCBF41EA0C019040AB
:1002A000E41AA2BF01EB0451294330BD6FEA0404F4
:1002B0001F3C1CDA0C340EDC04F11404C4F12002DF
:1002C00020FA04F001FA02F340EA030021FA04F3F1
:1002D00045EA030130BDC4F10C04C4F1200220FA48
:1002E00002F001FA04F340EA0300294630BD21FA86
:1002F00004F0294630BD94F0000F83F4801306BF4C
:1003000081F480110134013D4EE77FEA645C18BF3F
:100310007FEA655C29D094EA050F08BF90EA020FD6
:1003200005D054EA000C04BF1946104630BD91EACE
:10033000030F1EBF0021002030BD5FEA545C05D1D1
:100340004000494128BF41F0004130BD14F5800410
:100350003CBF01F5801130BD01F0004545F0FE4184
:1003600041F470014FF0000030BD7FEA645C1ABFB9
:10037000194610467FEA655C1CBF0B46024650EAF0
:10038000013406BF52EA033591EA030F41F400211C
:1003900030BD00BF90F0000F04BF0021704730B5A2
:1003A0004FF4806404F132044FF000054FF0000177
:1003B00050E700BF90F0000F04BF0021704730B538
:1003C0004FF4806404F1320410F0004548BF40420D
:1003D0004FF000013EE700BF42004FEAE2014FEA62
:1003E00031014FEA02701FBF12F07F4393F07F4F3D
:1003F00081F06051704732F07F4208BF704793F040
:100400007F4F04BF41F40021704730B54FF4607452
:1004100001F0004521F000411CE700BF50EA010255
:1004200008BF704730B54FF000050AE050EA0102FE
:1004300008BF704730B511F0004502D5404261EB6E
:1004400041014FF4806404F132045FEA915C3FF4AF
:10045000D8AE4FF003025FEADC0C18BF03325FEA4C
:10046000DC0C18BF033202EBDC02C2F1200300FAFD
:1004700003FC20FA02F001FA03FE40EA0E0021FA22
:1004800002F11444BDE600BF70B54FF0FF0C4CF410
:10049000E06C1CEA11541DBF1CEA135594EA0C0FC2
:1004A00095EA0C0F00F0DEF82C4481EA030621EAFD
:1004B0004C5123EA4C5350EA013518BF52EA033538
:1004C00041F4801143F4801338D0A0FB02CE4FF0EA
:1004D0000005E1FB02E506F00042E0FB03E54FF01A
:1004E0000006E1FB03569CF0000F18BF4EF0010E12
:1004F000A4F1FF04B6F5007F64F5407404D25FEA0E
:100500004E0E6D4146EB060642EAC62141EA5551C0
:100510004FEAC52040EA5E504FEACE2EB4F1FD0C02
:1005200088BFBCF5E06F1ED8BEF1004F08BF5FEA80
:10053000500E50F1000041EB045170BD06F0004632
:1005400046EA010140EA020081EA0301B4EB5C04DF
:10055000C2BFD4EB0C0541EA045170BD41F48011D7
:100560004FF0000E013C00F3AB8014F1360FDEBFFC
:10057000002001F0004170BDC4F10004203C35DAD8
:100580000C341BDC04F11404C4F1200500FA05F35B
:1005900020FA04F001FA05F240EA020001F00042FC
:1005A00021F0004110EBD37021FA04F642EB060172
:1005B0005EEA430E08BF20EAD37070BDC4F10C049C
:1005C000C4F1200500FA04F320FA05F001FA04F260
:1005D00040EA020001F0004110EBD37041F100014C
:1005E0005EEA430E08BF20EAD37070BDC4F1200557
:1005F00000FA05F24EEA020E20FA04F301FA05F2BF
:1006000043EA020321FA04F001F0004121FA04F266
:1006100020EA020000EBD3705EEA430E08BF20EA36
:10062000D37070BD94F0000F0FD101F00046400070
:1006300041EB010111F4801F08BF013CF7D041EAF2
:10064000060195F0000F18BF704703F000465200F6
:1006500043EB030313F4801F08BF013DF7D043EAC7
:100660000603704794EA0C0F0CEA135518BF95EA7D
:100670000C0F0CD050EA410618BF52EA4306D1D104
:1006800081EA030101F000414FF0000070BD50EA23
:10069000410606BF1046194652EA430619D094EAAD
:1006A0000C0F02D150EA013613D195EA0C0F05D197
:1006B00052EA03361CBF104619460AD181EA0301EB
:1006C00001F0004141F0FE4141F470014FF00000A3
:1006D00070BD41F0FE4141F4780170BD70B54FF03E
:1006E000FF0C4CF4E06C1CEA11541DBF1CEA1355BE
:1006F00094EA0C0F95EA0C0F00F0A7F8A4EB0504A0
:1007000081EA030E52EA03354FEA013100F0888096
:100710004FEA03334FF0805545EA131343EA12635F
:100720004FEA022245EA111545EA10654FEA002614
:100730000EF000419D4208BF964244F1FD0404F5CD
:10074000407402D25B084FEA3202B61A65EB030529
:100750005B084FEA32024FF480104FF4002CB6EBE6
:10076000020E75EB030E22BFB61A754640EA0C0066
:100770005B084FEA3202B6EB020E75EB030E22BFA6
:10078000B61A754640EA5C005B084FEA3202B6EBE7
:10079000020E75EB030E22BFB61A754640EA9C00A6
:1007A0005B084FEA3202B6EB020E75EB030E22BF76
:1007B000B61A754640EADC0055EA060E18D04FEA34
:1007C000051545EA16754FEA06164FEAC30343EAD4
:1007D00052734FEAC2025FEA1C1CC0D111F4801FA1
:1007E0000BD141EA00014FF000004FF0004CB6E79A
:1007F00011F4801F04BF01430020B4F1FD0C88BF39
:10080000BCF5E06F3FF6AFAEB5EB030C04BFB6EB43
:10081000020C5FEA500C50F1000041EB045170BD36
:100820000EF0004E4EEA113114EB5C04C2BFD4EB63
:100830000C0541EA045170BD41F480114FF0000EE7
:10084000013C90E645EA060E8DE60CEA135594EA63
:100850000C0F08BF95EA0C0F3FF43BAF94EA0C0F66
:100860000AD150EA01347FF434AF95EA0C0F7FF4DB
:1008700025AF104619462CE795EA0C0F06D152EA2F
:1008800003353FF4FDAE1046194622E750EA410613
:1008900018BF52EA43067FF4C5AE50EA41047FF424
:1008A0000DAF52EA43057FF4EBAE12E74FEA410287
:1008B00012F5001215D211D56FF47873B3EB6252B2
:1008C00012D94FEAC12343F0004343EA505311F0D9
:1008D000004F23FA02F018BF404270474FF000006B
:1008E000704750EA013005D111F0004008BF6FF0A9
:1008F000004070474FF00000704700BF10B5054C36
:10090000237833B9044B13B10448AFF300800123BB
:10091000237010BDC8000020000000001C4A000821
:1009200008B5034B1BB103490348AFF3008008BD72
:1009300000000000CC0000201C4A0008C0E9002391
:10094000DDE90023C0E90223DDE90223C0E9042335
:10095000DDE90423C0E9062300220023C0E90823BF
:10096000C0E90A23C0E90C23C0E90E2370472DE932
:10097000F047194682461046DDE90823FFF7CCFB15
:10098000DAE9068904460D464246CAE908454B465F
:10099000FFF77AFDDAE90A23FFF7C0FBDAE90E2355
:1009A00006460F4620462946CAE90A67FFF7B4FB08
:1009B00042464B46FFF792FEDAE90023804689461D
:1009C000CAE90E4520462946CAE90C89FFF75CFDB5
:1009D000DAE9022304460D4630463946FFF754FD56
:1009E00002460B4620462946FFF798FBDAE9042326
:1009F00004460D4640464946FFF746FD02460B4673
:100A000020462946FFF78AFBBDE8F087024A1368B3
:100A100001331360704700BF6C010020024A136865
:100A200001331360704700BF68010020012A02D122
:100A3000016000207047022A05D0032AF9D0002A5D
:100A4000F7D10260F5E70B680360F2E70368184727
:100A5000836810B5044613B1032201469847204627
:100A600010BD00007FB50024174B184E184D694685
:100A700004222046009301940396029503F0B4FAF1
:100A80006846FFF7E5FF134B0422694620460093B2
:100A9000CDE90256019403F0A7FA6846FFF7D8FFA4
:100AA0004FF416510C4800F0D1FB0121C22003F095
:100AB000E7FB0121C32003F0E3FB0121C42004B0C4
:100AC000BDE8704003F03ABC0D0A00084D0A00086A
:100AD0002D0A00081D0A0008700100200000000017
:100AE00038B50F4B1868FFF765FC0BA3D3E900235B
:100AF000FFF7CAFC0B4B044618680D46FFF75AFC7B
:100B0000094BD3E90023FFF7BFFC02460B46204602
:100B10002946FFF7E3FD38BD00000000004CED4022
:100B20006C010020080000200000002000000000F0
:100B300038B50F4B1868FFF73DFC0BA3D3E9002332
:100B4000FFF7A2FC0B4B044618680D46FFF732FC7A
:100B5000094BD3E90023FFF797FC02460B462046DA
:100B60002946FFF7BBFD38BD00000000004CED40FA
:100B7000680100200800002000000020F7B5FFF702
:100B8000AFFFCDE90001134B1348D3E90023FFF772
:100B9000EEFE06460F46FFF7CBFFCDE900010F4BF7
:100BA0000F48D3E90023FFF7E2FE04460D46304626
:100BB0003946FFF77BFE0146C22003F0F3FA2946CF
:100BC0002046FFF773FE0146C32003B0BDE8F040A6
:100BD00003F0E8BA180000202801002010000020CF
:100BE000E8000020F0B5174F87B01E2100231F2218
:100BF000154800F059FAD7E90023CDE90423134E34
:100C0000134DD6E90023CDE90223D5E90023CDE930
:100C10000023104C1048D4E90023FFF78FFED7E9DA
:100C20000023CDE90423D6E90023CDE90223D5E949
:100C30000023CDE900230948D4E90023FFF77EFE15
:100C400007B0F0BD20000020700100202800002027
:100C5000300000203800002028010020E80000209B
:100C6000014800F0EFB800BF70010020002070477D
:100C700090F86A2090F869309A420DD090F86A3066
:100C8000034493F8292090F86A30013303F03F03BE
:100C900080F86A30104670474FF0FF30704790F888
:100CA000693090F86A2003F14000801A434203F053
:100CB0003F0300F03F0058BF5842704772B6002310
:100CC00080F8693080F86A3062B6704790F86A2020
:100CD00090F869309A421DBF90F86A30C01890F8B9
:100CE00029004FF0FF3070477FB5214D0C462B682F
:100CF0008B422FD01F4801F0B4FE1E48002C33D089
:100D000002F018F901214FF6FE7204EB4403B0FB28
:100D1000F3F6964220D8174802F088F800223146B0
:100D2000144802F033F900221248114602F054F937
:100D300000230193104B69460093104B0D48039319
:100D40000F4B029302F028FA029B43B9094801F0C5
:100D500063FF2C6004B070BD40084900D7E76946C6
:100D6000032208469847F1E702F032F8F1E700BFA6
:100D7000E001002004020020851000084D0A000850
:100D80002D0A000890F82810D0E907238907C3F33B
:100D90000F234FF00101408A4CBF5361136103F0F0
:100DA0006FBA90F82830008A13F0020F0CBF0221AE
:100DB000032103F065BA000090F8283070B55B0796
:100DC00004460E460ED50B4D2B6861B1834209D007
:100DD000FFF7E7FF4FF0FF32074B1A600222074B85
:100DE0001A602C6070BD8342FCD1FFF7CBFF2E60F0
:100DF000F8E700BFF801002040000020F0010020CB
:100E000038B50D4D04462B68834213D10B4B19683E
:100E10000029FCD194F828305B0702D52046FFF763
:100E2000CBFF0021064B204629601960FFF75CFFCD
:100E3000012038BD0020FCE700020020FC0100205A
:100E4000F801002010B50446024B0360FFF7D8FFFD
:100E5000204610BD3C4A000810B50446FFF7F2FFDB
:100E60002046702102F0EBF9204610BDF8B504468B
:100E7000144F3868A04222D0134E3368002BFCD1A7
:100E800008B1FFF7BDFF01254FF0FF320F4B2046A1
:100E90001D600F4B616A1A60FFF726FF94F8283037
:100EA0003C605B0703D40B4B1C600120F8BD33682A
:100EB000002BFAD129462046FFF77EFFF5E70020F8
:100EC000F4E700BF00020020FC010020F001002038
:100ED00040000020F801002070B5044690F828304A
:100EE000184D43F0080380F828302B68002BFCD104
:100EF00094F82820144B4900920741F400711960BE
:100F000048BFC9434FF000064FF0030248BF1960C5
:100F10000E4B20461E600E4B616A1A60FFF7E4FE1E
:100F200094F828305B0703D531462046FFF744FF8D
:100F300094F8283001206FF3C30384F828302C6024
:100F400070BD00BFFC010020EC010020E801002082
:100F5000F4010020184A38B5116803460139002908
:100F6000116013DC154D29684C1C09292C600EDC1E
:100F7000D3E907431248C3F30F230168CD074CBFE1
:100F800023616361032349080160136038BD0121B7
:100F9000116090F82820150703D50022094B1A602C
:100FA000F4E7192CF2DD5207F7D5074A126882429E
:100FB000F3D1FFF701FFF0E7F4010020E801002082
:100FC000EC010020FC010020000200202A4A70B53C
:100FD0001368013B002B13603EDC436981699B6809
:100FE000264CDB4303EA11239BB2B3FA83F3216857
:100FF00090F82850B1F1FF3F4FEA5313C5F3400674
:101000000AD19E4205BF042100230123116004BFC1
:101010001B4A236013601FE007291EDD9E4216D085
:1010200090F8693090F86A10013303F03F03994259
:101030001FBF134D90F869102D6809180BBF45F0BC
:10104000010581F8295080F8285080F86930012383
:1010500013604FF0FF33236070BD094D9E42286836
:1010600001F101014FEA500018BF40F08000032356
:1010700028602160CEE700BFF00100204000002082
:10108000E401002008B5064B1A6812B11868FFF792
:101090009DFF044B1A6812B11868FFF75BFF08BD8B
:1010A000F8010020FC010020F8B504460D460020A0
:1010B0004FF47A71EEB2C4E901015F49222E21603A
:1010C0002582628259D85D4F05F4E06157F8267099
:1010D00039430F0917F00C0F02BF594807F00F07EB
:1010E00050F8270001F00F016061564F57F82110AA
:1010F000A161D1B2222955D8DFF840C102F4E060E5
:101100005CF821C040EA0C004FEA101C1CF00C0FE8
:1011100011BF4FF0000CDFF828E10CF00F0C5EF867
:101120002CC000F00F00C4F81CC057F82000A5EB3D
:10113000020C20620020DCF1000747EB0C075B008B
:1011400043EA870394F8287003F00F0327F00F0792
:101150003B43222984F86900606284F8283084F8CF
:101160006A00E06634D8354B53F82100C0F3031011
:1011700002F068F800283CD1FEE705F0C001C02964
:101180000CD1C92E0AD8304905F03F0751F827C0C5
:101190002A4F05F4E06157F82C7099E7002161614E
:1011A0000F21A2E702F0C000C0280DD1C9290BD839
:1011B000254802F03F0C50F82CE0DFF880C002F424
:1011C000E0605CF82EC09DE70020E0610F20ACE7F6
:1011D00002F0C003C02B0AD1C92908D81A4B02F06B
:1011E0003F0253F82220154B53F82200BEE70F2090
:1011F000BEE794F828305B071BD4222E08D80F4B8B
:1012000053F82600C0F3031002F01CF888B9FEE77B
:1012100005F0C003C02B0AD1C92E08D80A4B05F02F
:101220003F0553F82520054B53F82200EAE70F202D
:10123000EAE72046F8BD00BF3C4A0008444D0008DC
:101240004C000020904A00081C4D000810B590F892
:10125000283004465B07416209D4FFF793FD20461E
:10126000FFF79FFD2046BDE81040FFF7FFBDFFF7E9
:1012700089FD10BD0149024801F046BF000400404D
:1012800004020020014801F0EDBD00BF040200206F
:101290007047000038B50E4B05461A784FF47A7344
:1012A000B3FBF2F30B4A1068B0FBF3F000F09CF8CC
:1012B000044658B90F2D09D8024629464FF0FF3091
:1012C00000F042F82046044B1D6038BD0120FCE7C9
:1012D000440000206400002048000020074A08B5B0
:1012E0001368032043F01003136000F01BF8002084
:1012F000FFF7D0FFFFF7CCFF002008BD0020024021
:10130000034A044B11681B780B441360704700BFFD
:10131000B402002044000020014B1868704700BF51
:10132000B402002007490302CA6803F4E06322F410
:10133000E0621204120C134343F0BF6343F4003322
:10134000CB60704700ED00E0154B30B5DC68C4F3AE
:101350000224C4F10703251D042B28BF0423062DF6
:101360004FF0FF3594BF0024033C05FA03F321EA54
:101370000303A54022EA0502A340002843EA020332
:10138000ACBF00F16040074A4FEA0313DBB2ABBFCA
:1013900000F5614000F00F0080F80033135430BDB9
:1013A00000ED00E014ED00E0002807DB0123410917
:1013B000034A00F01F00834042F82130704700BF0D
:1013C00000E100E000280CDB01220649430900F09F
:1013D0001F008240203341F82320BFF34F8FBFF31B
:1013E0006F8F704700E100E00138B0F1807F0BD2D1
:1013F0004FF0E023F021054A586182F823100020C5
:10140000072298611A6170470120704700ED00E0E3
:10141000002808DB01224309034900F01F00824035
:10142000603341F82320704700E100E0704708B5C1
:10143000FFF7FCFF08BD704710B5044650B1437973
:1014400003F0FF0213B90271FFF7F5FF012300203B
:10145000637110BD0120FCE790F821200346022AA9
:1014600006D0042282630120002283F820207047E6
:101470000268C06B116821F00E011160116821F043
:101480000101116001211A6C01FA02F24260002090
:1014900083F82110E8E7000008B590F82130022B0E
:1014A00003D004238363012008BD03681A6822F077
:1014B0000E021A601A6822F001021A60174A93425B
:1014C0001FD0143293421ED0143293421DD01432D6
:1014D00093421DD0143293421DD01432934214BF54
:1014E0004FF080734FF480130D4A5360012380F84E
:1014F0002130002380F82030436B03B1984700204F
:10150000D2E70123F0E71023EEE74FF48073EBE717
:101510004FF48053E8E74FF48033E5E708000240DA
:10152000000002402DE9F74F00221646DFF87CC18B
:101530005F4BDFF880E1DFF880810D6835FA06F453
:1015400002D103B0BDE8F08F0127B74005EA0704D8
:1015500037EA050575D14D68032D06D8013D022DEA
:101560007ED8DFE805F08F949A00122D00F092806B
:1015700069D8112D00F08880FF2C98BF81464FF06C
:101580000F0B88BF00F104094FEA8605D9F80070F7
:1015900088BF203D0BFA05FA27EA0A0702FA05F58B
:1015A0002F43C9F80070D1F8049019F0805F48D03B
:1015B000DCF8185026F0030745F00105CCF8185068
:1015C000DCF8185007F1804705F00105019507F593
:1015D000803706F0030A019D4FEA8A0ABD680BFABC
:1015E0000AFB25EA0B0B354DA8425AD005F580655C
:1015F000A84258D005F58065A84214BF03250225EE
:1016000005FA0AF545EA0B05BD609D6819F4801FCF
:1016100014BF2543A5439D60DD6819F4001F14BF66
:101620002543A543DD605D6819F4003F14BF2543E1
:10163000A5435D601D6819F4803F14BF2543A54391
:101640001D60013679E7DFF878904D4508D011D854
:10165000A9F580194D4503D0754501D045458BD17D
:101660008A68E2B1012A08BF07614FF0080218BF7B
:10167000476181E7DFF84C904D45F1D009F580399D
:101680004D45ECE7CA6877E7CA68043274E7CA6870
:10169000083271E7CA680C326EE700226CE7042258
:1016A0006AE70025ACE70125AAE700BF0010024069
:1016B000000401400000211000001110000801404A
:1016C0000000221000003110044A08B5516901429F
:1016D00002D0506101F0DEFE08BD00BF00040140F1
:1016E0002DE9F341054638B30368DB0710D42B68B6
:1016F0009F075ED42B68190700F195802B685A0765
:1017000000F1C180EB69002B40F02C81002029E022
:10171000904C636803F00C03042B07D0636803F05C
:101720000C03082B0AD16368DE0307D523689C03EA
:10173000DDD56B68002BDAD1012013E06B68B3F5BF
:10174000803F12D1236843F480332360FFF7E4FD28
:10175000064623689803CAD4FFF7DEFD801B642881
:10176000F7D9032002B0BDE8F0819BB9236823F4C8
:1017700080332360236823F480232360FFF7CCFDAC
:10178000064623689903B2D5FFF7C6FD801B64287F
:10179000F7D9E6E7B3F5A02F236803D143F48023FC
:1017A0002360CFE723F480332360236823F480236E
:1017B000CBE7684C636813F00C0F07D0636803F045
:1017C0000C03082B10D16368DA030DD423689B0740
:1017D00002D52B69012BAFD123686A6923F0F80386
:1017E00043EAC203236085E72A695B4B6AB10122A1
:1017F0001A60FFF791FD064623689F07ECD4FFF7B8
:101800008BFD801B0228F7D9ABE71A60FFF784FD38
:101810000646236898077FF56DAFFFF77DFD801BB7
:101820000228F6D99DE7AA694A4E4B4BE2B1012244
:10183000C3F88024FFF770FD0446736A9B070DD53B
:101840004FF4FA52454B1B68B3FBF2F3019300BF10
:10185000019B5A1E0192002BF9D14FE7FFF75CFD67
:10186000001B0228E9D97CE7C3F88024FFF754FD68
:101870000446736A9F077FF541AFFFF74DFD001BDC
:101880000228F6D96DE7334CE369D80024D4012748
:10189000E36943F08053E361E36903F0805300930D
:1018A000009B2F4E3368D90518D5EB68012B26D144
:1018B000236A43F001032362FFF72EFD41F28838CB
:1018C0000646236A9B073FD5002F3FF41BAFE36911
:1018D00023F08053E36115E70027E2E7336843F420
:1018E00080733360FFF718FD80463368DA05DCD477
:1018F000FFF712FDA0EB08006428F6D931E7ABB979
:10190000236A41F2883823F001032362236A23F01B
:1019100004032362FFF700FD0646236A9807D3D528
:10192000FFF7FAFC801B4045F7D91AE7052B236A1D
:1019300003D143F004032362BAE723F001032362D7
:10194000236A23F00403B6E7FFF7E6FC801B40455B
:10195000B7D906E7001002400000424264000020B0
:10196000007000402A4C626802F00C02082A3ED047
:101970000022022B274B1A662CD1FFF7CDFC06461E
:101980002368990120D42B6AB3F5803F05D16268A2
:10199000A96822F400320A436260696A62680B43F4
:1019A00022F474121343012263601A4B1A66FFF784
:1019B000B3FC054623689A013FF5A8AEFFF7ACFCDF
:1019C000401B0228F6D9CCE6FFF7A6FC801B0228B4
:1019D000D6D9C6E6FFF7A0FC054623689B017FF534
:1019E00095AEFFF799FC401B0228F6D9B9E6012B0A
:1019F0003FF4A2AE60682B6A00F480329A427FF412
:101A00009BAE6B6A00F47010C01A18BF0120A9E6E3
:101A100000100240000042420D4A536803F00C01DE
:101A2000082912D10B48C3F38341DB03405C09D57D
:101A30005368094AC3F340435043084AD35CB0FBA0
:101A4000F3F07047064B584370470348704700BF98
:101A5000001002406A4A000800127A00684A000832
:101A600000093D002DE9F0410D46044610B9012062
:101A7000BDE8F081444A136803F007038B4228D382
:101A800021688E0730D4CA0743D43F4A136803F055
:101A90000703AB4265D822683C4D12F0040F6CD1AD
:101AA000130706D56B68226923F4605343EAC20327
:101AB0006B60FFF7B1FF6B68354AC3F30313D35C68
:101AC000D840344B1860344B1868FFF7E3FB002014
:101AD000CEE7136823F007030B431360136803F08A
:101AE00007038B42C3D1CBE7284B11F0040F1EBF75
:101AF0005A6842F4E0625A60080742BF5A6842F4EA
:101B000060525A605A68A06822F0F00202435A609C
:101B1000B9E762681D4E012A33681AD113F4003FF9
:101B2000A5D0736841F2883823F003031343736030
:101B3000FFF7F2FB07467368626803F00C03B3EB30
:101B4000820FA2D0FFF7E8FBC01B4045F3D903206A
:101B50008EE7022A02D113F0007FE1E713F0020FB3
:101B6000DEE7136823F007032B431360136803F0C9
:101B70000703AB427FF47BAF8DE76B68E16823F42A
:101B8000E0630B436B608BE70020024000100240D3
:101B9000D84A00086400002048000020044B054A91
:101BA0005B68C3F30223D35C034A1068D8407047D4
:101BB00000100240D04A000864000020044B054A8F
:101BC0005B68C3F3C223D35C034A1068D8407047F4
:101BD00000100240D04A0008640000200F23036078
:101BE0000B4B5A6802F0030242605A6802F0F0029E
:101BF00082605A6802F4E062C2605B68DB0803F44A
:101C0000E0630361034B1B6803F007030B6070473D
:101C1000001002400020024003682DE9F341054610
:101C2000D80721D5364CE369D9002BD40126E369C6
:101C300043F08053E361E36903F080530193019B18
:101C4000304F3B68DA051FD5236A6A6813F4407386
:101C50002ED1236A6A6823F44073134323621EB1B2
:101C6000E36923F08053E3612A68910706D524498C
:101C7000A8684B6823F4404303434B60D30636D433
:101C8000002012E00026DBE73B6843F480733B60F2
:101C9000FFF742FB80463B68DB05D5D4FFF73CFBF2
:101CA000A0EB08006428F6D9032002B0BDE8F0815B
:101CB00002F440729A42CCD00120134A236AC2F83F
:101CC0004004002023F44071DF07C2F84004216281
:101CD000BFD5FFF721FB41F288380746236A9807F2
:101CE000B7D4FFF719FBC01B4045F7D9DCE7044A1E
:101CF000E968536823F480030B435360C0E700BFD7
:101D0000001002400070004000004242036A026A74
:101D100070B522F001020262446882690D6822F007
:101D200073022A438D6823F002032B430A4DA84215
:101D30000BD1CD6823F008032B4324F44074D1E980
:101D40000556354323F004032C43446082614A68FE
:101D50004263036270BD00BF002C0140036A026A47
:101D600070B522F4807202624468C2690D6822F084
:101D700073022A438D6823F4007343EA05230B4D55
:101D8000A8420DD1CD6823F4006343EA052324F46F
:101D90004054D1E90556354323F4806344EA0514E1
:101DA0004460C2614A68C263036270BD002C014096
:101DB000036A026A30B522F4805202624468C26942
:101DC0000D6822F4E64242EA05228D6823F40053AE
:101DD00043EA0533064DA84202BF4D6924F480440E
:101DE00044EA85144460C2614A680264036230BDFB
:101DF000002C014090F83D30012B18D102230D4AF0
:101E000080F83D300368934206D0B3F1804F03D091
:101E1000A2F59432934204D19A6802F00702062A8E
:101E200003D01A6842F001021A60002070470120B6
:101E3000704700BF002C014041F211120368196A7B
:101E4000114208D140F24442196A114202BF1A6895
:101E500022F001021A60012380F83D300020704713
:101E600090F83C200346012A4FF0020009D01A687E
:101E700083F83D0051610020012283F83C0083F883
:101E80003D20704770477047036810B51A690446D3
:101E900091070ED5DA6892070BD56FF002021A612E
:101EA000012202779B699B0777D001F0C4F90023D8
:101EB000237723681A69500710D5DA6851070DD5C2
:101EC0006FF004021A61022222779B69204613F404
:101ED000407F68D001F0AFF90023237723681A69A7
:101EE00012070FD5DA6810070CD56FF008021A61D7
:101EF00004222277DB69204699075AD001F09BF92A
:101F00000023237723681A69D20610D5DA68D00631
:101F10000DD56FF010021A6108222277DB69204686
:101F200013F4407F4BD001F086F900232377236818
:101F30001A69D10708D5DA68D20705D56FF0010212
:101F400020461A6101F054F923681A69100608D571
:101F5000DA68110605D56FF0800220461A6100F09C
:101F6000FCFA23681A69520608D5DA68500605D5C6
:101F70006FF0400220461A61FFF785FF23681A6957
:101F8000910622D5DA6892061FD56FF0200220460E
:101F9000BDE810401A6100F0DFBA01F04AF92046AE
:101FA000FFF770FF83E701F044F92046FFF76AFF6F
:101FB00092E701F03EF92046FFF764FFA0E701F049
:101FC00038F92046FFF75EFFAFE710BD114A0368FE
:101FD000904206D0B0F1804F03D0A2F594329042E7
:101FE00007D14A6823F070031343CA6823F440738F
:101FF00013434A6923F08003134303608B68C36271
:102000000B688362034B984204BF0B69036301238F
:1020100043617047002C014010B5044630B390F87E
:102020003D3003F0FF021BB980F83C2001F012FEA6
:102030000223206884F83D30211DFFF7C7FF0123EC
:10204000002084F8463084F83E3084F83F3084F82D
:10205000403084F8413084F8423084F8433084F8CA
:10206000443084F8453084F83D3010BD0120FCE751
:10207000036A026A70B522F0100202624468826943
:102080000D6822F4E64242EA05228D6823F020031F
:1020900043EA05130B4DA8420DD1CD6823F0800310
:1020A00043EA051324F44064D1E90556354323F08F
:1020B000400344EA8504446082614A6882630362A3
:1020C00070BD00BF002C014010B590F83C300446B4
:1020D000012B1DD0082A17D007D862B1042A0FD0CF
:1020E0000120002384F83C3010BD0C2AF8D1006890
:1020F000FFF75EFE02E00068FFF708FE0020F0E751
:102100000068FFF7B5FFF9E70068FFF727FEF5E77E
:102110000220E9E738B590F83C300446012B4FD057
:102120000120082A84F83C003AD006D8BAB1042A23
:1021300026D0002384F83C3038BD0C2AF9D1206821
:10214000FFF736FEC3690A6943F40063C361C369DC
:1021500023F48063C361C36943EA02232EE020684D
:10216000FFF7D4FD83690A6943F00803836183693B
:1021700023F0040383618369134383610020D8E75C
:102180002068FFF775FF83690A6943F40063836180
:10219000836923F480638361836943EA0223ECE764
:1021A0002068FFF7DBFDC3690A6943F00803C361D8
:1021B000C36923F00403C361C3691343C361DDE74B
:1021C0000220B9E770B5056A046A104E24F00104D4
:1021D0000462B042846915D0B0F1804F12D0A6F5E8
:1021E0009436B0420ED044F001021B0122F0F002FE
:1021F000DBB2134301F00A0125F00A0211438361A7
:10220000016270BD24F003042243EEE7002C01407C
:10221000F8B590F83C300546012B0C4600F088805C
:10222000012085F83C008AB92868CB6806C9FFF709
:10223000C9FF8369A26823F00C0383618369134398
:1022400083610020002385F83C30F8BD042A24D1A6
:10225000D1E900272B68C9681E6A186A090320F0B3
:1022600010001862986989B220F4407040EA072093
:1022700020F470401201014302F0A00226F0A000F9
:10228000024399611A629A69A16822F440629A61D4
:102290009A6942EA01229A61D3E7082A22D1D1E958
:1022A00000202B68C9681E6A1F6A090127F480771D
:1022B0001F62DF69C9B227F00307384320F0F0003E
:1022C0001202014302F4007226F400700243D96145
:1022D0001A62DA69A16822F00C02DA61DA690A434B
:1022E000DA61AEE70C2AADD1D1E900272B68C968C5
:1022F0001E6A186A090320F480501862D86989B2EE
:1023000020F4407040EA072020F47040120301439B
:1023100002F4005226F400500243D9611A62DA69CD
:10232000A16822F44062DA61DA6942EA0122D7E761
:1023300002208AE710B50124036A01F01F018C40D6
:1023400023EA04030362036A8A401A43026210BD4F
:1023500008B529B990F83E30012B1DD001202FE09F
:10236000042907D190F83F30012BF7D1022380F8E0
:102370003F3014E0082907D090F84130012BEDD10F
:10238000022380F841300AE090F84030012BE5D17B
:10239000022380F8403002E0022380F83E300068DB
:1023A0000122FFF7C7FF0C4B98420AD1436C43F45C
:1023B00000434364836803F00703062B07D1002022
:1023C00008BDB0F1804FF5D0044B9842F2D00368BD
:1023D00043F001030360F2E7002C014000040040D9
:1023E000FFF7B6BF034610B539BB90F83E4093F8EF
:1023F0004220012CE0B2D2B253D1012A1CD10222D8
:1024000083F83E2083F8422018680122FFF792FFEC
:10241000254B984206D0B0F1804F03D0A3F59433FA
:10242000984204D1836803F00703062B03D00368A6
:1024300043F001030360002010BD04290FD190F880
:102440003F4093F84320012CE0B2D2B229D1012AB7
:10245000F2D1022283F83F2083F84320D4E70829F1
:102460000FD090F8414093F84520012CE0B2D2B251
:1024700017D1012AE0D1022283F8412083F84520B8
:10248000C2E790F8404093F84420012CE0B2D2B269
:1024900007D1012AD0D1022283F8402083F84420BA
:1024A000B2E70120C8E700BF002C014010B50424AA
:1024B000036A01F01F018C4023EA04030362036AEC
:1024C0008A401A43026210BD08B529B990F842301B
:1024D000012B1DD001203AE0042907D190F84330A8
:1024E000012BF7D1022380F8433014E0082907D0EC
:1024F00090F84530012BEDD1022380F845300AE0F9
:1025000090F84430012BE5D1022380F8443002E0FA
:10251000022380F8423000680422FFF7C7FF436CB3
:1025200043F4004343640A4B984206D0B0F1804F15
:1025300003D0A3F59433984204D1836803F00703D2
:10254000062B03D0036843F001030360002008BD9D
:10255000002C0140FFF7B8BF70477047026802F1D6
:102560000C0353E8003F23F490730C3242E800312F
:1025700002680029F2D102F1140353E8003F23F06E
:10258000010302F1140C4CE800310029F3D1036B74
:10259000012B0BD102F10C0353E8003F23F0100391
:1025A00002F10C0C4CE800310029F3D1202380F813
:1025B000423000230363704790F84130202B10D144
:1025C00089B182B1C2848284002321220162016820
:1025D000436480F84120CA68184642F08002CA600D
:1025E0007047022070470120704708B50023406AF9
:1025F000C385C38401F0E2FB08BD704790F8423008
:1026000007B5222B42D181680268B1F5805F836AE9
:102610003FD1016900293FD15268C2F3080223F873
:10262000022B8362C38D013B9BB2C385002B2DD14E
:102630000268D16821F02001D160D16821F4807155
:10264000D160516921F001015161202280F84220BE
:102650004363026B012A026828D1036302F10C0371
:1026600053E8003F23F0100302F10C0C4CE800315A
:102670000029F3D11368DB0605D501911368019396
:1026800053680193019B818DFFF7B7FF03B05DF89D
:1026900004FB39B9016929B95268D2B21A70836A48
:1026A0000133BEE7526802F07F02F7E701F080FBDA
:1026B000ECE70000036873B51A6804461607D9688A
:1026C0005D690AD1960640F18B808D0640F18880C5
:1026D00002B0BDE87040FFF791BF15F001054BD087
:1026E00012F0010F02F0040363D11BB1636C43F0DD
:1026F00002036364930749D5636C12F0080F43F03B
:102700000403636403D0636C43F008036364636C85
:10271000002B5FD0920604D58B0602D52046FFF72A
:102720006DFF266820467369626C03F0400302F077
:10273000080253EA02054FD0FFF710FF73695E06E7
:1027400045D5226802F1140353E8003F23F040030B
:10275000143242E800310029F3D1E06B002836D072
:10276000894B4363FEF798FE002833D0E06B436B40
:1027700002B0BDE87040184711F4907F30D012F0DD
:10278000010F02F0040307D190070DD41007BED546
:1027900001F020032B43B5E7CE050FD4002BF3D176
:1027A0009607F3D5002DA7D11507B0D511F0200F4E
:1027B000A8E7C80502D4002B98D1F1E7636C56074F
:1027C00043F001036364EBD5002DDDD08EE7204696
:1027D00001F0F4FA02B070BD01F0F0FA6564F9E7B7
:1027E000206B012840F09480D50640F19180C80606
:1027F00040F18E80002201921A6801925A6801927B
:10280000019A5A6952064DD5E16B0A68526892B234
:10281000002ADFD0A08D9042DCD9E2858A69202A87
:1028200036D003F10C0252E8002F22F4807203F13B
:102830000C0040E800210029F3D103F1140252E812
:10284000002F22F0010203F1140040E800210029CA
:10285000F3D103F1140252E8002F22F0400203F1F9
:10286000140040E800210029F3D1202284F84220FE
:10287000216303F10C0252E8002F22F0100203F151
:102880000C0040E800210029F3D1E06BFEF7E4FDE5
:1028900002236363E38DA18DC91A89B22046FFF735
:1028A000ACFE97E7E28DE08DA18D80B292B2002858
:1028B00090D0891A89B200298CD003F10C0252E819
:1028C000002F22F4907203F10C0545E80020002847
:1028D000F3D103F1140252E8002F22F0010203F1B8
:1028E000140545E800200028F3D1202284F8422076
:1028F000206303F10C0252E8002F22F0100203F1D2
:102900000C0545E800200028F3D102236363C5E7E6
:10291000160628D50D0626D594F84120212A7FF4E5
:1029200059AFA168226AB1F5805F17D12169A9B9B1
:1029300032F8021BC1F3080159602262E28C013AAD
:1029400092B2E284002A7FF445AFDA6822F0800276
:10295000DA60DA6842F04002DA603BE7511C21623B
:1029600012785A60EAE750067FF534AF4A067FF5E1
:1029700031AFDA68204622F04002DA60202384F882
:10298000413001F018FA25E7EB25000890F84030B7
:10299000012B11D02423026880F84130D36823F042
:1029A0000C0343F00803D360202380F84130002358
:1029B00080F84030184670470220704790F8403049
:1029C000012B11D02423026880F84130D36823F012
:1029D0000C0343F00403D360202380F8413000232C
:1029E00080F84030184670470220704790F8412028
:1029F00090F84200104370470023C28543642223AD
:102A00008285026980F84230816203681AB1DA680F
:102A100042F48072DA605A69002042F001025A6181
:102A2000DA6842F02002DA60704770B490F84260D1
:102A3000202E06D141B13AB10024046370BCFFF7E7
:102A4000DBBF022070BC70470120FBE7836810B534
:102A500004462BB10322014698470023C4E9023300
:102A600010BD10B5044650F8103FDA6822F001029C
:102A7000DA60DA6822F00202DA60DA6822F0040230
:102A8000DA60DA6822F00802DA60DA6822F010020E
:102A9000DA60FFF7D1F92269136823F001031360AC
:102AA000012384F84E3084F84F3084F8503084F895
:102AB000513084F8523084F8533084F8543084F81C
:102AC000553010BD4B1E032B9ABF880004384FF0C1
:102AD000FF3070470139435C2BB1022907D8054B01
:102AE00033F811007047032901D8034BF8E74FF082
:102AF000FF3070478A4A0008824A000801390329DA
:102B00009ABF024B585C4FF0FF3070477E4A000876
:102B1000013903299ABF024B58564FF0FF307047D6
:102B20007A4A0008F8B50446FFF7CCFF0246501C6D
:102B30000E4600D1FEE72046FFF7E0FF411C0546A8
:102B400000D1FEE731462046FFF7C4FF013000D137
:102B5000FEE7B71D04EB0717BB682BB1E9432369F8
:102B60001961D9680D43DD60731E04EB4301898848
:102B70000C293FD8DFE801F0464614141407071467
:102B8000143F3F3F2100E35C114604F110001BB1EC
:102B9000BDE8F840FFF7DEBCBDE8F840FFF720BC19
:102BA000E35C114604F110001BB1BDE8F840FFF7EB
:102BB0008BBCBDE8F840FFF7CBBB114604F1100019
:102BC000FFF710FC31462046FFF7A2FF01460546FD
:102BD0002046FFF77FFF2269136A1843BB68106223
:102BE00043B129462046FFF789FFC3431361D368E9
:102BF0001843D060F8BD04F110001146BDE8F8405C
:102C0000FFF7F0BB23691B68DB07F3D404F1100066
:102C1000BDE8F840FFF7EEB8836E10B5044653B137
:102C20006FF0010250F8103F1A61DA6842F00102B9
:102C3000DA60FFF7DFF820460121FFF773FF204637
:102C40000221FFF76FFF20460321FFF76BFF2046AD
:102C5000BDE810400421FFF765BF00002DE9F047F3
:102C60008CB098460446FFF72DFF431C0F461646CE
:102C7000054600D1FEE74FF6FF7305932369D8B9E7
:102C80005B6B002206930123CDE902329DF85030A0
:102C9000CDE90922079208920B920192049307F161
:102CA000FF390C2E2ED8DFE806F01016264E5153B1
:102CB0005C5E6064626B6D00042801D19B6BE0E791
:102CC00008280CBFDB6B1B6CDBE705922A4605A9C5
:102CD00004F1100014E004EB47077B8843B10023A4
:102CE0002A467B8005A904F110000593FFF7ECF953
:102CF0000CB0BDE8F08710232A46059305A9E0181B
:102D0000FFF7E2F904EB4903B8F1FF3F9E80EFD0F3
:102D1000404600F0DDFFA8424ED140462749093E1B
:102D200000F0A8FE032E05D8404601F0EBF9002183
:102D300001F0A6FA4046214900F0D6FEC0F300504B
:102D400004F80900D4E720230593BFE73023FBE70D
:102D500060232A4605A904F110000593FFF7DAF96C
:102D6000D0E77023F5E75023EEE74023ECE702239A
:102D700001932A4601A904F11000FFF749FAC1E7BF
:102D80000A23F5E704F1100A2A4601A95046FFF785
:102D90003FFA39462046FFF7BBFE0C2204EB400306
:102DA0005A80022301462046CDE90133FFF78AFE0F
:102DB00001A902465046E0E7FEE700BF484B000885
:102DC000013903299ABF00EB410080880020704739
:102DD00002696030D36823F00103D360FFF736BE89
:102DE00001211030FFF73CB80369186800F00100BA
:102DF000704710B502460C46FFF7F6FF80B9CB6866
:102E0000DB070ED5CB68104623F00103CB60FFF73C
:102E1000E7FF6FF001032361E36843F00103E36020
:102E200010BD1046BDE81040FFF7DABF0B46016940
:102E3000013B8B62FFF7DDBF094A034690420AD08F
:102E4000B0F1804F09D04FF6FF70A2F59432934253
:102E500008BF02207047002070470120704700BF64
:102E6000002C0140014670B5044651F8100FFFF7E1
:102E7000E3FF0546084600F099FE0023084AE36098
:102E800042F8253004F1600604F1B005B54204D0E3
:102E9000103D2846FDF7DCFDF8E7204670BD00BF79
:102EA000B8020020F8B504460846FFF7C5FF4FF604
:102EB000FF73984200D1FEE7236903B1FEE71C4D82
:102EC00004F10C0245F820200E2204F110063046D1
:102ED000C4E90C33C4E90E33C4E91033C4E9162342
:102EE000216184F82C30A36484F84C3084F84D3090
:102EF000E46000F027FE04F1600504F1B007284605
:102F00001035FFF7A3FDBD42F9D100234FF6FF7244
:102F1000C4E90033C4E90632C4E90833A36063613D
:102F200080233046A362BDE8F840FFF775B800BFC4
:102F3000B802002010B586B014220446002101A872
:102F400001F088FC0023694601A80093FEF746FEC5
:102F5000206900F0A7FE012802D002280FD0FEE76A
:102F6000049CFEF71BFEB4F5C06F05D00BD824F40B
:102F70008074B4F5806F00D1400006B010BD059C90
:102F8000FEF71CFEEFE7B4F5E06FF4E7012A38B571
:102F900005460C460BD0022A16D004B1013C296923
:102FA0002846CC62EC61BDE83840FFF722BFFFF74E
:102FB000C1FF084BB0FBF3F044432A69230C936232
:102FC0000133B4FBF3F4E8E7FFF7B4FFB0FBF4F42C
:102FD000F3E700BF40420F00036970B59D6A012A04
:102FE00006460C4605F1010504D0022A0BD03369D0
:102FF0005C6270BDFFF79EFF064BB0FBF3F36343CB
:10300000B3FBF5F4F3E7FFF795FF6543B0FBF5F489
:10301000EDE700BF40420F00F8B5054614461A46DA
:10302000FFF750FD2B69411C06469F6A00D1FEE761
:10303000822A07F1010730D01CD8102A07D842B1E4
:10304000DB6A03FB044301249440013C18E0812A1D
:1030500019D04FF6FF722969CB6A934203D1B4F5B8
:10306000803F08BF1C46EEB94C632846BDE8F840D7
:10307000FFF7BFBE832AECD1DB6A03FB0443642461
:10308000B3FBF4F4E5E72846FFF754FF0A4BB0FB27
:10309000F3F06043B0FBF7F4DBE72846FFF74AFFA5
:1030A0006743F7E7042E01D18C63DEE7082E0CBFDF
:1030B000CC630C64D9E700BF40420F00034B186893
:1030C00010B10430FEF7E0BE704700BFB802002028
:1030D000FFF7F4BF034B586810B10430FEF7D4BEBD
:1030E000704700BFB8020020034B986810B104304D
:1030F000FEF7CABE704700BFB80200200022C0E938
:103100000022C0E902227047F8B504460E4600F1DD
:10311000600500F1B00728461035FFF7EFFFBD420C
:10312000F9D10023204631462361FFF7BBFE20463C
:10313000F8BD38B50023C0E90033C0E902338B681D
:1031400004460D462BB102229847EB68E360AB685A
:10315000A360204638BD30B587B002AD044628468E
:10316000FFF7E7FF95E803006B4683E8030094E868
:10317000030085E8030093E80300049BA268A360B2
:10318000059B0492E26884E80300E3602846059208
:10319000FDF75EFC07B030BD38B50446A36E0D46A2
:1031A00060301BB1BDE83840FFF7D5BFFFF7D3FF54
:1031B000AB683BB16FF0010223691A61DA6842F033
:1031C0000102DA6038BD826810B50AB901F022FC4C
:1031D000C368BDE81040184708B500B9FEE700F025
:1031E000AFFC0068836E13B16030FFF7ECFF08BDE1
:1031F000FFF7F2BF10B500B9FEE7037F013B072BD5
:1032000010D8DFE803F004140F100F0F0F12012481
:1032100000F096FC0068063400EB041083680BB1E4
:10322000FFF7D1FF10BD0324F2E70424F0E70224E6
:10323000EEE7FFF7DFBFFFF7DDBF01F055BA01F0A2
:103240005BBA000084B0032834D8DFE800F0020F36
:103250001B27194B19489A6942F004029A619B692D
:1032600003F004030093009B04B07047124B144812
:103270009A6942F008029A619B6903F0080301937E
:10328000019BF1E70C4B0F489A6942F010029A61DA
:103290009B6903F010030293029BE5E7064B0A4883
:1032A0009A6942F020029A619B6903F0200303931C
:1032B000039BD9E70020D7E7001002400008014037
:1032C000000C014000100140001401402DE9F347BB
:1032D0008A46254999469046064600F0E3FBFFF7EB
:1032E000ABFD224F044657F8203073B9B020FFF7EA
:1032F000A4FF1D490546304600F0D4FB0146284690
:10330000FFF702FF57F824301D6057F824301649A4
:1033100030461C6800F0E8FBC0F3C435294620465F
:10332000FFF74EFD0528074607D00023052200932E
:10333000294633462046FFF791FC0222514620469B
:10334000FFF724FE4B46424629462046FFF764FE1F
:10335000052F05D0204602B0BDE8F047FFF75CBC62
:1033600002B0BDE8F08700BF484B0008B80200205B
:10337000F8B51449074600F095FBFFF75DFD124EC6
:10338000044656F8203073B9B020FFF756FF0D49B8
:103390000546384600F086FB01462846FFF7B4FE96
:1033A00056F824301D6056F824301C6844B120467D
:1033B000FFF758FD2046BDE8F840B021FFF73FBFBA
:1033C000F8BD00BF484B0008B8020020FDF7A4BFBD
:1033D000704708B5FDF794FFFEF729F8FFF7F8FFEF
:1033E00008BD70470F4B84B0DA6942F08052DA6151
:1033F000DA6902F080520192019A9A6942F0010260
:103400009A619A6902F001020292029A5A6942F0A4
:1034100040025A615B6903F040030393039B04B0CD
:10342000704700BF001002400C4BD3F8FC20D201C3
:103430005EBFD3F8FC2042F08072C3F8FC2000226B
:10344000074B5A601A6842F001021A6000BF00BFC1
:1034500000BF5868B0FA80F04009704700ED00E006
:10346000001000E008B5FFF7BDFFFFF7DDFFFDF737
:1034700035FFFFF7B6FF00F023FDBDE80840014827
:10348000FDF7DABF5C0000200023C0E90033C0E98B
:10349000023370470023012803F101020AD11422EC
:1034A000DBB25343054A181D1044816829B11A4400
:1034B0001369184713464008EDE77047C40200201F
:1034C0000120FEF701B90220FEF7FEB80420FEF746
:1034D000FBB80820FEF7F8B81020FEF7F5B838B5AD
:1034E00005242025A8B2FEF7EFF8013C4FEA450578
:1034F000F8D138BD38B506244FF48065A8B2FEF780
:10350000E3F8013C4FEA4505F8D138BD2DE9F0411B
:10351000174600240A468AB0012A04F101050CD19D
:10352000FF29CDE902130BD8012902464FF0000311
:103530000FD01D464FF0010C0FE02C465208EBE770
:103540000023021DF5E70CFA03FE8E4506D1FF2984
:1035500001D89D00EEE79D00203D1E460133102B53
:10356000F1D10F231268AB4013400822AA409342C6
:1035700040D10123C268B34093430CBF012302230F
:103580000493032302A90593FDF7CCFF142306AD92
:1035900039462846E4B25C43FFF7CBFD95E80300CB
:1035A0006A46DFF8548082E8030008EB0403043322
:1035B00093E8030085E8030092E8030083E8030032
:1035C000261D089B4644B268B360099B0892F268C6
:1035D0002846F3600992FDF73BFA0022062118F90C
:1035E0000400FDF7B1FE18F90400FDF7DDFE0AB096
:1035F000BDE8F0810023C3E7C4020020344A08B5C7
:103600001046062300F8043BFFF73EFF072302F1B4
:1036100018001375FFF738FF082302F12C0082F819
:103620002830FFF731FF092302F1400082F83C30D7
:10363000FFF72AFF0A23172102F1540082F85030C5
:10364000FFF722FF02F1680082F86410FFF71CFF09
:1036500002F17C0082F87810FFF716FF02F190006B
:1036600082F88C10FFF710FF02F1A40082F8A0107E
:10367000FFF70AFF82F8B410282102F1B800FFF723
:1036800003FF02F1CC0082F8C810FFF7FDFE02F143
:10369000E00082F8DC10FFF7F7FE02F1F40082F898
:1036A000F010FFF7F1FE02F5847082F80411FFF7C5
:1036B000EBFE02F58E7082F81811FFF7E5FEBDE80B
:1036C000084002F5987082F82C11FFF7DDBE00BFAC
:1036D000C402002038B5054CA4F5A075143C201D8B
:1036E000FDF7B6F9AC42F9D138BD00BF04040020A3
:1036F000614B82B09A69013842F001029A619B697C
:1037000003F001030193019B23281AD8DFE800F09E
:10371000121B22292E353A41191919464D565B6262
:103720006B7479808919191919198E951919191934
:103730009A9FA6AD514A536843F0E06343F00103FA
:10374000536002B070474D4A536823F0010343F0C1
:10375000E063F5E7494A536843F0E06343F002034E
:10376000EEE7464A536823F00203F0E7434A536802
:1037700043F0E06343F00403E2E7404A536823F078
:103780000403E4E73D4A536843F0E06343F0080371
:10379000D6E73A4A536823F00803D8E7374A536814
:1037A00043F0E06343F0C003CAE7344A536823F0B0
:1037B000C00343F0E06343F04003C1E72F4A53687E
:1037C00023F0C003C3E72D4A536843F0E06343F49A
:1037D0004073B5E7294A536823F4407343F0E0632C
:1037E00043F40073ACE7254A536823F4407343F075
:1037F000E06343F48073A3E7204A536823F44073E3
:10380000A5E71E4A536843F0E06343F4406397E73B
:103810001A4A536823F4406343F0E06343F40063BF
:103820008EE7164A536823F4406390E7134A5368BF
:1038300043F0E06343F4004382E7104A536823F403
:10384000004384E70D4A536823F0E06378E70B4AAE
:10385000536823F0E06343F0807371E7074A5368CD
:1038600023F0E06343F000736AE7044A536823F0EF
:10387000E06343F0806363E7001002400000014012
:1038800091FAA1F3B3FA83F370B50D0E0F2691FAF6
:10389000A1F1B1FA81F144599B0006FA03F38900C2
:1038A00024EA03048A402243425170BD91FAA1F3F5
:1038B000B3FA83F370B50D0E042691FAA1F1B1FAB3
:1038C00081F144599B0006FA03F3890024EA0304BA
:1038D0008A402243425170BD431C04D00C3151F840
:1038E0000C3C5A1C01D100207047834201F10C01AD
:1038F000F5D1012070470000431C2DE9F341064635
:103900000F4600D1FEE7584B00F00F02C0F3031042
:1039100001F0070853F82250FFF794FCB8F1010FAB
:10392000044615D195FAA5F3B3FA83F30321280EC3
:1039300022589B0001FA03F322EA030295FAA5F349
:10394000B3FA83F39B0099401143215001223BE0DD
:10395000C7F30620B8F1030F0AD801A353F828F0E3
:10396000733900084D390008BF390008E1390008F3
:10397000FEE7FFF7BDFE082229462046FFF780FF3D
:1039800095FAA5F22B0EB2FA82F2E1580F239200BB
:10399000934095FAA5F2B2FA82F2C7F301170B40F1
:1039A0009200012F23FA02F31CD0022F45D0082BDE
:1039B0002BD1042229462046FFF762FF25E07F280D
:1039C00001D0FFF795FE092229462046FFF758FF50
:1039D00017F0080218BF04222946FFF767FFCFE758
:1039E0000022C9E7042B04D1082229462046FFF70C
:1039F00047FF01232A0A92FAA2F2B2FA82F2E168A0
:103A0000934021EA15210B43E360184B9A6942F079
:103A100001029A619B6903F001030193019BA6F1E6
:103A20000D03012B14D8124A536823F0E06343F0CE
:103A30008063536002B0BDE8F081042B04D10822FA
:103A400029462046FFF71CFFE36823EA1523DBE73E
:103A50000F2E02D0133E012EECD8054A536823F0F6
:103A6000E06343F00073E4E7904A0008001002406E
:103A700000000140431C06D17047834202D189688F
:103A8000FFF73ABF0C310B685A1CF6D1FEE70B6802
:103A90005A1C01D100207047834201D14868704709
:103AA0000C31F4E7431C01D0FFF7F1BF0020704751
:103AB0004B6813B94FF0FF307047834201D108685B
:103AC00070470C31F4E708B1FFF7F2BF4FF0FF3059
:103AD000704703460868421C00D17047984201D1E4
:103AE000886870470C31F5E7431C01D0FFF7F1BF40
:103AF000704700000F4B1A6842F001021A605968C3
:103B00000D4A0A405A601A6822F0847222F4803208
:103B10001A601A6822F480221A605A6822F4FE029F
:103B20005A604FF41F029A604FF00062034B9A6094
:103B3000704700BF001002400000FFF800ED00E0F9
:103B4000043870470368164A84B093420BD1154B72
:103B50009A6942F400629A619B6903F400630193DD
:103B6000019B04B07047B3F1804F0BD103F50433D0
:103B7000DA6942F00102DA61DB6903F001030293C2
:103B8000029BEEE7084A9342EBD1064BDA6942F01A
:103B90000202DA61DB6903F002030393039BE0E7AF
:103BA000002C0140001002400004004003680E4A4F
:103BB000934206D102F56442936923F40063936152
:103BC0007047B3F1804F05D1084AD36923F0010350
:103BD000D3617047064A9342FBD102F50332D369A1
:103BE00023F00203F4E700BF002C01400010024064
:103BF00000040040431C0AD0094B98420AD003F548
:103C00009433984208D0B0F1804F07D0FEE76FF0B0
:103C10000D0070471D207047192070471C20704709
:103C200000040040431C0AD0094B98420AD003F517
:103C30009433984208D0B0F1804F07D0FEE76FF080
:103C40000D0070471D2070471B2070471C207047D7
:103C50000004004038B50446FFF774FF0068FFF722
:103C6000C9FFD4E91212FDF76FFB2068FFF7C2FF0E
:103C7000FDF79AFB22681046FFF7D4FF0546104671
:103C8000FFF7B8FF85420BD0D4E912122846FDF7A2
:103C90005BFB2068FFF7C6FFBDE83840FDF784BB3B
:103CA00038BD0000431C0AD0084B98420BD003F5E6
:103CB0009433984205D0B0F1804F04D0FEE7002045
:103CC0007047022070470120704700BF0004004089
:103CD00008B50649FFF708FFC0F3C430431E032BA5
:103CE00000D9FEE78000043808BD00BF484B00083B
:103CF00008B5074B90F8652053F82200FEF776FED2
:103D000000F02200A0F122035842584108BD00BF34
:103D10000404002008B5074B90F8652053F82200F2
:103D2000FEF764FE00F02100A0F121035842584143
:103D300008BD00BF0404002038B515460446B8B1DC
:103D4000016590F96400FDF73DFBB4F87630E16E53
:103D50009BB294F865001944064BAAB253F82000B0
:103D6000FEF72AFC94F96400BDE83840FDF71CBB5F
:103D700038BD00BF0404002048B1836D013306D173
:103D800090F86520024B53F82200FEF7FFBD704704
:103D90000404002048B1836D013306D190F86520FA
:103DA000024B53F82200FEF709BE704704040020BE
:103DB000836C04381847C36C0438184730B5044680
:103DC00050F8043985B01D6815F0010512D00022A5
:103DD00000921A6800925B680093009BFFF788FFCF
:103DE00040BB0122204604F1620105B0BDE830402D
:103DF000FEF71BBE196811F0020106D001951A6882
:103E000001925B680193019BE8E71A6812F00402D3
:103E100006D002911A6802925B680293029BDDE76A
:103E200019680907DAD503921A6803925B6803934D
:103E3000039BD3E705B030BD08B52520FDF7E8FAB0
:103E4000024B1868BDE80840FEF734BC04040020AB
:103E5000262008B5FDF7DCFA034B586818B1BDE819
:103E60000840FEF727BC08BD0404002003460A49A9
:103E700010B508680344EFF30882934205D90C2279
:103E80004FF0FF30054B1A6010BD054A054C121B60
:103E90009342F4D20B60F7E768000020740600201C
:103EA0000028002000040000FEE700001622024B5C
:103EB0004FF0FF301A6070477406002001207047F1
:103EC00010B594B0142200210CA800F0C3FC1422F9
:103ED00000210DEB020000F0BDFC1022002101A822
:103EE00000F0B8FC02244FF480330122CDE91143E5
:103EF000CDE90A234FF4E0130AA80E921393FDF7BD
:103F0000EFFB00B1FEE70F23CDE905344FF48063EA
:103F10000790CDE90830214605A8FDF7A3FD00B1C3
:103F2000FEE7122301934FF40043CDE9033001A8CB
:103F3000FDF772FE00B1FEE714B010BD70472DE929
:103F4000F04106460D460C468F18BC4202D1601B5C
:103F5000BDE8F081A046336830461B6818F8011BA5
:103F600098470028F3D04446EFE710B5044600F028
:103F700021FAE060236820465B699847002808DA48
:103F800000F018FAE368C01AA3689842F2D34FF021
:103F9000FF3010BDF8B507460D460C468E18B442EA
:103FA00001D1601BF8BD3846FFF7DFFF031EF8DBC9
:103FB00004F8013BF3E72DE9F04107468846164631
:103FC0001D4673B100243846FFF7CFFF031E05DB03
:103FD000434503D033550134A542F4D12046BDE812
:103FE000F0811C46FAE700002DE9F041C3B2222B14
:103FF0000E46904686B041D8324A00F4E06452F84A
:1040000023301C43C4F30310FFF71CF907460028B4
:1040100031D0B8F1020F45D0B8F1030F2A4D04D0CA
:104020002A4BB8F1000F18BF1D46294B9A6942F080
:1040300001029A619B6903F001030193019BA4F1C2
:104040000D03012B30D8234A536823F0E06343F07B
:1040500080635360314602A8FFF76BF8012104F03A
:104060000F04A14038462B4602AA89B2FFF74EFA48
:1040700002A8FCF7EDFC06B0BDE8F08100F0C0023C
:10408000C02A0CD1C92B0AD8134B00F03F0253F8B9
:1040900022200C4B00F4E06453F82230B1E74FF0DB
:1040A000FF34AFE70D4DC0E70F2C03D0A4F113038D
:1040B000012BCFD8074A536823F0E06343F0007325
:1040C000C7E700BF444D0008000021100000111098
:1040D00000100240000001401C4D0008000031109B
:1040E00008B50320FDF71EF9BDE8084000F072B9DD
:1040F00008B5AFF30080FCF7B5FCFCF73FFD00F01E
:104100005BF9FAE70309024613F00C0010B50DD174
:10411000074BD1B253F8044B8C4203D102F4E06256
:10412000104310BD01302328F4D1FAE72320F8E72B
:10413000444D0008FFF7DEFC0B480C490C4A0023F5
:1041400002E0D458C4500433C4188C42F9D3094A4D
:10415000094C002301E013600432A242FBD300F0BB
:1041600091FBFFF7C5FF704700000020C80000204A
:10417000284E0008C80000207C060020FEE791427F
:104180000FD008D90123891A8B40984208D30130F7
:10419000C8400138704720B10130521A9040F8E70A
:1041A00000207047C3B2222B2DE9F04107460E468E
:1041B00031D82C4A00F4E06452F823301C43621CCE
:1041C0004ED020462849FFF787FBDFF8A080054640
:1041D000002831D0264AC4F3031152F8210004F01C
:1041E0000F0520FA05F3DB075FBF0123AB40034354
:1041F00042F821301F4BD8F800101D6830462A467F
:10420000FFF7BDFF1C490246EBB22046BDE8F04176
:104210000968FFF75BB800F0C002C02A20D1C92BA3
:104220001ED8164B00F03F0253F822200D4B00F42D
:10423000E06453F82230C1E73846012100F020F84D
:10424000D8F8001030460822FFF799FF7F2898BF62
:1042500029463846BDE8F04188BF012100F06EB81C
:10426000BDE8F081444D0008484B00087400002070
:104270000C040020700000206C0000201C4D000881
:10428000C3B2222B2DE9F0410D462AD8274A00F46B
:10429000E06452F823301C43621C44D0244EC4F323
:1042A000031756F8273004F00F0823FA08F3DB074A
:1042B00010D520461F49FFF70FFB10B12046FFF72E
:1042C00057F8012256F8273002FA08F223EA0203CF
:1042D00046F82730052D15D8DFE805F015211B1D00
:1042E0001F2300F0C002C02A1DD1C92B1BD8124BBE
:1042F00000F03F0253F822200C4B00F4E06453F826
:104300002230C8E7FEE700212046BDE8F041FFF774
:10431000F3BA1021F8E72021F6E70321F4E70121A1
:10432000F2E70921F0E7BDE8F08100BF444D000845
:104330000C040020484B00081C4D0008C3B2222B7F
:1043400018D8184A00F4E06052F8233018430309E3
:1043500013F00C0F21D1144A03F00F0352F823304D
:10436000124A00F00F0052F82020C2F30F22B1B120
:104370001A61704700F0C002C02A0CD1C92B0AD8BC
:104380000B4B00F03F0253F82220064B00F4E06094
:1043900053F82230DAE74FF0FF300023E0E75A61AC
:1043A000704700BF444D00084C000020904A0008B0
:1043B0001C4D0008FFF70AB808B5044B2BB10448A0
:1043C00000F00AF808B1AFF3008008BD000000005B
:1043D0001C040020FFF746B8B0F80831B0F80421FB
:1043E000981A00F03F007047B0F80831B0F8042187
:1043F0009BB293421ABFD0F8FC30985C4FF0FF306C
:10440000704790F80631B0F80A01C0B2834227BF66
:10441000C3F13F03C018C01A00F1FF30704707B561
:1044200003688DF8071001225B680DF107019847BA
:1044300003B05DF804FB0000B0F87610826F10B591
:104440000A4402F03F02A0F87620B0F87610B0F8E7
:10445000722089B28A421AD0B0F876404032A4B2B3
:10446000B0F87610121B544289B204F03F0402F0F7
:104470003F02C1F1400158BF62428A4228BF0A464A
:1044800004498267FFF758FC4FF0FF3010BD002051
:10449000FCE700BF3944000803682DE9F0479B683A
:1044A000044688461646984701232374D4F8EC3016
:1044B000B4F8069101338246C9F1400904F194072A
:1044C00008D194F810312BB10023384684F810310C
:1044D000FFF752FC236820469B6898470028F9D0D4
:1044E00035464D4523D8554521D8B4F80621D4F892
:1044F00000015319402B10442FD82A46414600F0A2
:10450000E7F9A946B4F8063138461D4405F03F05E1
:10451000A4F80651FFF7FEFB30B94A463846164963
:10452000C4F80C91FFF708FC3046BDE8F087D14590
:1045300028BFD14623684A4641465B6820469847D3
:10454000236820469B689847A5EB0905C844B4F842
:1045500006918246C9F14009C3E7C2F140094A46C3
:10456000414600F0B5F9D4F80001A5EB090208EBCB
:10457000090100F0ADF9C5E739440008037C70B5C6
:1045800004460D46A3B1FCF7C7FE0646B4F8062163
:10459000B4F80A319BB29A420AD0002DF8D0FCF749
:1045A000BBFE801B8542F1D8B4F80A31A4F806316D
:1045B00070BDC0F8F030009B914208BF4FF0FF3152
:1045C000C0F8F43000F11103C0F8FC300023C0E95A
:1045D0003A2100F15102A0F80831C0E94023A0F8C7
:1045E0000A317047F7B54FF47A7317460022C0E9D5
:1045F00001231C4B044603604FF0FF33C0F8EC303E
:10460000194B1A4E9C420D46F06A05D1B36AC4F8A4
:10461000EC30C4F8E8000AE01549FFF743FA854298
:1046200015D1B36AC4F8EC30F36AC4F8E8304FF03F
:10463000FF33012F08BFC4F8EC3000932046D4E9C3
:104640003A214FF0FF33FFF7B4FF03B0F0BD284627
:104650000849FFF738FA0649C4F8EC002846FFF786
:1046600032FAD6E7D84D00081C040020444D00085B
:10467000184B0008E84A0008D0F8EC3010B50133B8
:1046800004460FD1036800215B6A984794F8103103
:1046900043B9012304F1940084F81031BDE81040BF
:1046A000FFF778BB10BD10B50446FFF7E5FFB4F87F
:1046B0000821B4F8043192B29A4217BFD4F8FC2012
:1046C0004FF0FF30D05C01331CBF03F03F03A4F870
:1046D000043110BD002202490248FFF783BF00BF2A
:1046E000003801401C040020024B0146186800F00D
:1046F0002DB800BF78000020024B0146186800F07A
:10470000F5B800BF7800002070B50F4E0C46316838
:10471000054611B900F0A6F830602146284600F0A1
:10472000A1F8431C03D14FF0FF34204670BDC41CD8
:1047300024F00304A042F8D0211A284600F092F891
:104740000130F2D1EFE700BF340500202DE9F04140
:10475000CD1C25F0030508350C2D38BF0C25002D88
:10476000064601DBA94204D90C2333600020BDE8D2
:10477000F081314F00F062F83B681C4644BB29468B
:104780003046FFF7C1FF431C044650D13C68214628
:10479000002941D1002C44D02368304604EB0308A3
:1047A00000F060F880453CD1216830466D1A2946FA
:1047B000FFF7AAFF013034D023682B4423603B6805
:1047C000002B36D05A68A24229D100225A600EE04E
:1047D0002268521B1DD40B2A16D96119A3422560E9
:1047E00018BF5960636808BF396062514B6030463A
:1047F00000F02AF804F10B00231D20F00700C21A74
:10480000B5D01B1AA350B2E7A3426268DED13A606A
:10481000EDE723466468B1E70C464968B8E71346FC
:10482000CEE70C233046336000F00EF89EE70560BB
:10483000DDE75B60FFDE00BF38050020014800F0C7
:1048400045B800BF78060020014800F040B800BF1E
:104850007806002003460244934200D1704703F8D3
:10486000011BF9E738B50023054D044608462B60C7
:10487000FFF7FCFA431C02D12B6803B1236038BD5B
:104880007406002070B500260C4D0D4C641BA4105E
:10489000A64209D100F0C2F800260A4D0A4C641B5A
:1048A000A410A64205D170BD55F8043B98470136C7
:1048B000EEE755F8043B98470136F2E7004E000852
:1048C000004E0008004E0008184E00087047704760
:1048D0000A44914200F1FF3300D1704710B511F83E
:1048E000014B914203F8014FF9D110BD38B505468F
:1048F000002940D051F8043C0C1F002BB8BFE4182D
:10490000FFF79CFF1C4A136833B9636014602846A4
:10491000BDE83840FFF798BFA34208D920682118A6
:104920008B4201BF19685B6809182160EDE71A46E0
:104930005B680BB1A342FAD911685018A0420BD1A1
:1049400020680144501883421160E0D118685B6808
:10495000084410605360DAE702D90C232B60D6E7D5
:10496000206821188B4201BF19685B680918216013
:1049700063605460CBE738BD38050020062008B5D9
:1049800000F02CF80120FFF78FFA1F2938B50546F3
:104990000C4604D9162303604FF0FF3038BDC26BBC
:1049A00012B152F821304BB9284600F031F82246B6
:1049B00001462846BDE8384000F018B8012B0AD05F
:1049C000591C03D1162303600120E7E7002120468C
:1049D00042F8241098470020E0E70000024B01460F
:1049E0001868FFF7D2BF00BF7800002038B5002359
:1049F000064D0446084611462B60FFF757FA431C44
:104A000002D12B6803B1236038BD00BF74060020BB
:104A1000FFF754BA08B5FFF7B1FF0000F8B500BFC3
:104A2000F8BC08BC9E467047F8B500BFF8BC08BC8F
:044A30009E467047E7
:104A34000000000000000000D90E00083F3F0008FD
:104A44006D0C0008BD0C00089F0C0008710C0008D8
:104A5400CD0C0008953F0008B73F0008450E00083C
:104A6400590E0008010202030405060708090A0B8F
:104A74000C0D0E0F101002010403020408100100B3
:104A840010000001001004004000000401010000B7
:104A940002020000040400000808000010100000D6
:104AA400202000004040000080800000010001043C
:104AB40002000204040004040800080410001004A6
:104AC4002000200440004004800080040000000016
:104AD40001020304000000000000000001020304BE
:104AE4000607080903000000004400401008000005
:104AF4000A00000000380140100600001700000002
:104B04000038014010050000FFFFFFFF0000000017
:104B140000000000020000000044004012080000F1
:104B240009000000003801401206000016000000D1
:104B34000038014012050000FFFFFFFF00000000E5
:104B4400000000000000000000000040128000008F
:104B5400000100000000004012900000010000006D
:104B6400000000401212010001010000000000409A
:104B74001210010002000000000000401292010027
:104B84000201000000000040129101000300000037
:104B94000000004012120200030100000000004067
:104BA40012110200060000000004004012950000EB
:104BB40007000000002C0140128D100007010000C6
:104BC400000400401215010008000000002C014000
:104BD400128E000008010000002C0140128D00001C
:104BE40009000000002C0140120E01000901000020
:104BF400002C0140120D01000A000000002C0140AD
:104C0400128E01000A010000002C0140128D0100E7
:104C14000B000000002C0140120E02000B010000EA
:104C2400002C0140120D02000F00000000000040A3
:104C3400129100000F01000000000040128F0000DC
:104C440010000000002C0140120D110010010000A2
:104C5400000400401295010010020000000400400E
:104C64001294010011000000002C0140128D11006B
:104C7400110100000004004012150200110200009E
:104C84000004004012140200130000000000004061
:104C9400121101001301000000000040120F010076
:104CA40014000000000400401294000015000000ED
:104CB40000040040121401001A000000000000402B
:104CC400129001001A01000000000040128F010040
:104CD4001B00000000000040121002001B01000035
:104CE40000000040120F02001D000000002C0140D3
:104CF400128E10001E000000002C0140120E110044
:104D04001F000000002C0140128E1100FFFFFFFF66
:104D14000000000000000000140000001500000066
:104D24001600000017000000180000001900000021
:104D34001A0000001B0000001C0000001D00000001
:104D44001900000018000000170000001600000001
:104D54001500000014000000130000000F00000004
:104D64000C0000000B0000000A0000000900000015
:104D7400080000001F0000001E0000001D000000CD
:104D84001C0000002D0000002E0000002F00000079
:104D94000000000001000000020000000300000009
:104DA40004000000050000000600000007000000E9
:104DB40010000000110000001A0000001B00000099
:104DC400120000000D0000000E00000000000000B2
:104DD400000000001F440008994400080344000830
:104DE4003D3F0008D9430008A7460008E9430008EE
:0C4DF400953F0008B73F00087D4500080F
:104E0000E140000821090008E50B000875120008C0
:084E1000FD350008D54600083D
:104E1800FD080008610C000885120008D536000856
:104E280000000000000059401400000000000000CD
:104E38000000000000406A400000000000406A4096
:104E48009A9999999999B93F7B14AE47E17A843F29
:104E5800000000000000F03F000000000000F03FEC
:104E6800FFFFFFFF010000001000000000080140E4
:104E7800000C0140001001400014014000300240C5
:104E8800000000000024F40080060020E803000071
:104E980008000000080000007C000020000000005E
:104EA8003C050020A40500200C060020000000009E
:104EB80000000000000000000000000000000000EA
:104EC80000000000000000000000000000000000DA
:104ED80000000000000000000000000000000000CA
:084EE8000000000000000000C2
:040000050800413579
:00000001FF
